{
  "contractName": "Dao",
  "abi": [
    {
      "inputs": [
        {
          "internalType": "uint256",
          "name": "_contributionTimeEnd",
          "type": "uint256"
        },
        {
          "internalType": "uint256",
          "name": "_voteTime",
          "type": "uint256"
        },
        {
          "internalType": "uint256",
          "name": "_quorum",
          "type": "uint256"
        }
      ],
      "stateMutability": "nonpayable",
      "type": "constructor"
    },
    {
      "inputs": [],
      "name": "availableFunds",
      "outputs": [
        {
          "internalType": "uint256",
          "name": "",
          "type": "uint256"
        }
      ],
      "stateMutability": "view",
      "type": "function",
      "constant": true
    },
    {
      "inputs": [],
      "name": "contributionTimeEnd",
      "outputs": [
        {
          "internalType": "uint256",
          "name": "",
          "type": "uint256"
        }
      ],
      "stateMutability": "view",
      "type": "function",
      "constant": true
    },
    {
      "inputs": [
        {
          "internalType": "uint256",
          "name": "",
          "type": "uint256"
        }
      ],
      "name": "investorsList",
      "outputs": [
        {
          "internalType": "address",
          "name": "",
          "type": "address"
        }
      ],
      "stateMutability": "view",
      "type": "function",
      "constant": true
    },
    {
      "inputs": [
        {
          "internalType": "address",
          "name": "",
          "type": "address"
        },
        {
          "internalType": "uint256",
          "name": "",
          "type": "uint256"
        }
      ],
      "name": "isVoted",
      "outputs": [
        {
          "internalType": "bool",
          "name": "",
          "type": "bool"
        }
      ],
      "stateMutability": "view",
      "type": "function",
      "constant": true
    },
    {
      "inputs": [],
      "name": "manager",
      "outputs": [
        {
          "internalType": "address",
          "name": "",
          "type": "address"
        }
      ],
      "stateMutability": "view",
      "type": "function",
      "constant": true
    },
    {
      "inputs": [],
      "name": "nextProposalId",
      "outputs": [
        {
          "internalType": "uint256",
          "name": "",
          "type": "uint256"
        }
      ],
      "stateMutability": "view",
      "type": "function",
      "constant": true
    },
    {
      "inputs": [
        {
          "internalType": "address",
          "name": "",
          "type": "address"
        }
      ],
      "name": "numOfshares",
      "outputs": [
        {
          "internalType": "uint256",
          "name": "",
          "type": "uint256"
        }
      ],
      "stateMutability": "view",
      "type": "function",
      "constant": true
    },
    {
      "inputs": [
        {
          "internalType": "uint256",
          "name": "",
          "type": "uint256"
        }
      ],
      "name": "proposals",
      "outputs": [
        {
          "internalType": "uint256",
          "name": "Id",
          "type": "uint256"
        },
        {
          "internalType": "string",
          "name": "description",
          "type": "string"
        },
        {
          "internalType": "uint256",
          "name": "amount",
          "type": "uint256"
        },
        {
          "internalType": "address payable",
          "name": "receipient",
          "type": "address"
        },
        {
          "internalType": "uint256",
          "name": "votes",
          "type": "uint256"
        },
        {
          "internalType": "uint256",
          "name": "end",
          "type": "uint256"
        },
        {
          "internalType": "bool",
          "name": "isExecuted",
          "type": "bool"
        }
      ],
      "stateMutability": "view",
      "type": "function",
      "constant": true
    },
    {
      "inputs": [],
      "name": "quorum",
      "outputs": [
        {
          "internalType": "uint256",
          "name": "",
          "type": "uint256"
        }
      ],
      "stateMutability": "view",
      "type": "function",
      "constant": true
    },
    {
      "inputs": [],
      "name": "totalShares",
      "outputs": [
        {
          "internalType": "uint256",
          "name": "",
          "type": "uint256"
        }
      ],
      "stateMutability": "view",
      "type": "function",
      "constant": true
    },
    {
      "inputs": [],
      "name": "voteTime",
      "outputs": [
        {
          "internalType": "uint256",
          "name": "",
          "type": "uint256"
        }
      ],
      "stateMutability": "view",
      "type": "function",
      "constant": true
    },
    {
      "inputs": [],
      "name": "contribution",
      "outputs": [],
      "stateMutability": "payable",
      "type": "function",
      "payable": true
    },
    {
      "inputs": [
        {
          "internalType": "uint256",
          "name": "amount",
          "type": "uint256"
        }
      ],
      "name": "reedemShare",
      "outputs": [],
      "stateMutability": "nonpayable",
      "type": "function"
    },
    {
      "inputs": [
        {
          "internalType": "uint256",
          "name": "amount",
          "type": "uint256"
        },
        {
          "internalType": "address",
          "name": "to",
          "type": "address"
        }
      ],
      "name": "transfer",
      "outputs": [],
      "stateMutability": "nonpayable",
      "type": "function"
    },
    {
      "inputs": [
        {
          "internalType": "string",
          "name": "description",
          "type": "string"
        },
        {
          "internalType": "uint256",
          "name": "amount",
          "type": "uint256"
        },
        {
          "internalType": "address payable",
          "name": "receipient",
          "type": "address"
        }
      ],
      "name": "createProposal",
      "outputs": [],
      "stateMutability": "nonpayable",
      "type": "function"
    },
    {
      "inputs": [
        {
          "internalType": "uint256",
          "name": "proposalId",
          "type": "uint256"
        }
      ],
      "name": "voteProposal",
      "outputs": [],
      "stateMutability": "nonpayable",
      "type": "function"
    },
    {
      "inputs": [
        {
          "internalType": "uint256",
          "name": "proposalId",
          "type": "uint256"
        }
      ],
      "name": "executeProposal",
      "outputs": [],
      "stateMutability": "nonpayable",
      "type": "function"
    },
    {
      "inputs": [],
      "name": "ProposalList",
      "outputs": [
        {
          "components": [
            {
              "internalType": "uint256",
              "name": "Id",
              "type": "uint256"
            },
            {
              "internalType": "string",
              "name": "description",
              "type": "string"
            },
            {
              "internalType": "uint256",
              "name": "amount",
              "type": "uint256"
            },
            {
              "internalType": "address payable",
              "name": "receipient",
              "type": "address"
            },
            {
              "internalType": "uint256",
              "name": "votes",
              "type": "uint256"
            },
            {
              "internalType": "uint256",
              "name": "end",
              "type": "uint256"
            },
            {
              "internalType": "bool",
              "name": "isExecuted",
              "type": "bool"
            }
          ],
          "internalType": "struct Dao.Proposal[]",
          "name": "",
          "type": "tuple[]"
        }
      ],
      "stateMutability": "view",
      "type": "function",
      "constant": true
    }
  ],
  "bytecode": "0x60806040523480156200001157600080fd5b506040516200290038038062002900833981810160405281019062000037919062000134565b600081118015620000485750606481105b6200008a576040517f08c379a00000000000000000000000000000000000000000000000000000000081526004016200008190620001f1565b60405180910390fd5b824262000098919062000242565b60078190555081600981905550600a54905033600b60006101000a81548173ffffffffffffffffffffffffffffffffffffffff021916908373ffffffffffffffffffffffffffffffffffffffff1602179055505050506200027d565b600080fd5b6000819050919050565b6200010e81620000f9565b81146200011a57600080fd5b50565b6000815190506200012e8162000103565b92915050565b60008060006060848603121562000150576200014f620000f4565b5b600062000160868287016200011d565b935050602062000173868287016200011d565b925050604062000186868287016200011d565b9150509250925092565b600082825260208201905092915050565b7f4e6f742056616c69642056616c75650000000000000000000000000000000000600082015250565b6000620001d9600f8362000190565b9150620001e682620001a1565b602082019050919050565b600060208201905081810360008301526200020c81620001ca565b9050919050565b7f4e487b7100000000000000000000000000000000000000000000000000000000600052601160045260246000fd5b60006200024f82620000f9565b91506200025c83620000f9565b925082820190508082111562000277576200027662000213565b5b92915050565b612673806200028d6000396000f3fe6080604052600436106101095760003560e01c80636ac1e01f11610095578063afc8275b11610064578063afc8275b14610352578063b7760c8f1461037d578063bcf93dd6146103a6578063c1188cff146103d1578063e65da429146103fa57610109565b80636ac1e01f146102985780636dfc1099146102c1578063807896d5146102ec5780638ee36f051461031557610109565b80632ccc8727116100dc5780632ccc8727146101d05780633a98ef391461020d57806346fcff4c14610238578063481c6a751461026357806350520b1f1461028e57610109565b8063013cf08b1461010e5780630d61b519146101515780631703a0181461017a5780632ab09d14146101a5575b600080fd5b34801561011a57600080fd5b50610135600480360381019061013091906116f7565b610437565b604051610148979695949392919061181f565b60405180910390f35b34801561015d57600080fd5b50610178600480360381019061017391906116f7565b61052e565b005b34801561018657600080fd5b5061018f6106a7565b60405161019c9190611895565b60405180910390f35b3480156101b157600080fd5b506101ba6106ad565b6040516101c79190611895565b60405180910390f35b3480156101dc57600080fd5b506101f760048036038101906101f291906116f7565b6106b3565b60405161020491906118d1565b60405180910390f35b34801561021957600080fd5b506102226106f2565b60405161022f9190611895565b60405180910390f35b34801561024457600080fd5b5061024d6106f8565b60405161025a9190611895565b60405180910390f35b34801561026f57600080fd5b506102786106fe565b60405161028591906118d1565b60405180910390f35b610296610724565b005b3480156102a457600080fd5b506102bf60048036038101906102ba919061197d565b610928565b005b3480156102cd57600080fd5b506102d6610b78565b6040516102e39190611bc6565b60405180910390f35b3480156102f857600080fd5b50610313600480360381019061030e91906116f7565b610d6f565b005b34801561032157600080fd5b5061033c60048036038101906103379190611c14565b610fa7565b6040516103499190611c54565b60405180910390f35b34801561035e57600080fd5b50610367610fd6565b6040516103749190611895565b60405180910390f35b34801561038957600080fd5b506103a4600480360381019061039f9190611c6f565b610fdc565b005b3480156103b257600080fd5b506103bb611343565b6040516103c89190611895565b60405180910390f35b3480156103dd57600080fd5b506103f860048036038101906103f391906116f7565b611349565b005b34801561040657600080fd5b50610421600480360381019061041c9190611caf565b6115ff565b60405161042e9190611895565b60405180910390f35b600460205280600052604060002060009150905080600001549080600101805461046090611d0b565b80601f016020809104026020016040519081016040528092919081815260200182805461048c90611d0b565b80156104d95780601f106104ae576101008083540402835291602001916104d9565b820191906000526020600020905b8154815290600101906020018083116104bc57829003601f168201915b5050505050908060020154908060030160009054906101000a900473ffffffffffffffffffffffffffffffffffffffff16908060040154908060050154908060060160009054906101000a900460ff16905087565b3373ffffffffffffffffffffffffffffffffffffffff16600b60009054906101000a900473ffffffffffffffffffffffffffffffffffffffff1673ffffffffffffffffffffffffffffffffffffffff16146105be576040517f08c379a00000000000000000000000000000000000000000000000000000000081526004016105b590611d88565b60405180910390fd5b6000600460008381526020019081526020016000209050600a54600554606483600401546105ec9190611dd7565b6105f69190611e48565b1015610637576040517f08c379a000000000000000000000000000000000000000000000000000000000815260040161062e90611ec5565b60405180910390fd5b60018160060160006101000a81548160ff02191690831515021790555080600201546006600082825461066a9190611ee5565b925050819055506106a381600201548260030160009054906101000a900473ffffffffffffffffffffffffffffffffffffffff16611617565b5050565b600a5481565b60085481565b600381815481106106c357600080fd5b906000526020600020016000915054906101000a900473ffffffffffffffffffffffffffffffffffffffff1681565b60055481565b60065481565b600b60009054906101000a900473ffffffffffffffffffffffffffffffffffffffff1681565b426007541015610769576040517f08c379a000000000000000000000000000000000000000000000000000000000815260040161076090611f65565b60405180910390fd5b600034116107ac576040517f08c379a00000000000000000000000000000000000000000000000000000000081526004016107a390611fd1565b60405180910390fd5b60016000803373ffffffffffffffffffffffffffffffffffffffff1673ffffffffffffffffffffffffffffffffffffffff16815260200190815260200160002060006101000a81548160ff02191690831515021790555034600160003373ffffffffffffffffffffffffffffffffffffffff1673ffffffffffffffffffffffffffffffffffffffff1681526020019081526020016000205461084e9190611ff1565b600160003373ffffffffffffffffffffffffffffffffffffffff1673ffffffffffffffffffffffffffffffffffffffff1681526020019081526020016000208190555034600560008282546108a39190611ff1565b9250508190555034600660008282546108bc9190611ff1565b925050819055506003339080600181540180825580915050600190039060005260206000200160009091909190916101000a81548173ffffffffffffffffffffffffffffffffffffffff021916908373ffffffffffffffffffffffffffffffffffffffff160217905550565b3373ffffffffffffffffffffffffffffffffffffffff16600b60009054906101000a900473ffffffffffffffffffffffffffffffffffffffff1673ffffffffffffffffffffffffffffffffffffffff16146109b8576040517f08c379a00000000000000000000000000000000000000000000000000000000081526004016109af90611d88565b60405180910390fd5b8160065410156109fd576040517f08c379a00000000000000000000000000000000000000000000000000000000081526004016109f490612071565b60405180910390fd5b6040518060e00160405280600854815260200185858080601f016020809104026020016040519081016040528093929190818152602001838380828437600081840152601f19601f8201169050808301925050505050505081526020018381526020018273ffffffffffffffffffffffffffffffffffffffff1681526020016000815260200160095442610a919190611ff1565b815260200160001515815250600460006008548152602001908152602001600020600082015181600001556020820151816001019081610ad1919061226c565b506040820151816002015560608201518160030160006101000a81548173ffffffffffffffffffffffffffffffffffffffff021916908373ffffffffffffffffffffffffffffffffffffffff1602179055506080820151816004015560a0820151816005015560c08201518160060160006101000a81548160ff02191690831515021790555090505060086000815480929190610b6d9061233e565b919050555050505050565b606060006001600854610b8b9190611ee5565b67ffffffffffffffff811115610ba457610ba3612091565b5b604051908082528060200260200182016040528015610bdd57816020015b610bca611662565b815260200190600190039081610bc25790505b50905060005b600854811015610d6757600460008281526020019081526020016000206040518060e001604052908160008201548152602001600182018054610c2590611d0b565b80601f0160208091040260200160405190810160405280929190818152602001828054610c5190611d0b565b8015610c9e5780601f10610c7357610100808354040283529160200191610c9e565b820191906000526020600020905b815481529060010190602001808311610c8157829003601f168201915b50505050508152602001600282015481526020016003820160009054906101000a900473ffffffffffffffffffffffffffffffffffffffff1673ffffffffffffffffffffffffffffffffffffffff1673ffffffffffffffffffffffffffffffffffffffff16815260200160048201548152602001600582015481526020016006820160009054906101000a900460ff161515151581525050828281518110610d4957610d48612386565b5b60200260200101819052508080610d5f9061233e565b915050610be3565b508091505090565b600115156000803373ffffffffffffffffffffffffffffffffffffffff1673ffffffffffffffffffffffffffffffffffffffff16815260200190815260200160002060009054906101000a900460ff16151514610e01576040517f08c379a0000000000000000000000000000000000000000000000000000000008152600401610df890612401565b60405180910390fd5b600060046000838152602001908152602001600020905060001515600260003373ffffffffffffffffffffffffffffffffffffffff1673ffffffffffffffffffffffffffffffffffffffff168152602001908152602001600020600084815260200190815260200160002060009054906101000a900460ff16151514610ebc576040517f08c379a0000000000000000000000000000000000000000000000000000000008152600401610eb39061246d565b60405180910390fd5b4281600501541015610f03576040517f08c379a0000000000000000000000000000000000000000000000000000000008152600401610efa906124d9565b60405180910390fd5b600015158160060160009054906101000a900460ff16151514610f5b576040517f08c379a0000000000000000000000000000000000000000000000000000000008152600401610f5290612545565b60405180910390fd5b600160003373ffffffffffffffffffffffffffffffffffffffff1673ffffffffffffffffffffffffffffffffffffffff1681526020019081526020016000205481600401819055505050565b60026020528160005260406000206020528060005260406000206000915091509054906101000a900460ff1681565b60075481565b600115156000803373ffffffffffffffffffffffffffffffffffffffff1673ffffffffffffffffffffffffffffffffffffffff16815260200190815260200160002060009054906101000a900460ff1615151461106e576040517f08c379a000000000000000000000000000000000000000000000000000000000815260040161106590612401565b60405180910390fd5b81600160003373ffffffffffffffffffffffffffffffffffffffff1673ffffffffffffffffffffffffffffffffffffffff1681526020019081526020016000205410156110f0576040517f08c379a00000000000000000000000000000000000000000000000000000000081526004016110e7906125b1565b60405180910390fd5b816006541015611135576040517f08c379a000000000000000000000000000000000000000000000000000000000815260040161112c9061261d565b60405180910390fd5b81600160003373ffffffffffffffffffffffffffffffffffffffff1673ffffffffffffffffffffffffffffffffffffffff16815260200190815260200160002060008282546111849190611ee5565b925050819055506000600160003373ffffffffffffffffffffffffffffffffffffffff1673ffffffffffffffffffffffffffffffffffffffff168152602001908152602001600020540361122e5760008060003373ffffffffffffffffffffffffffffffffffffffff1673ffffffffffffffffffffffffffffffffffffffff16815260200190815260200160002060006101000a81548160ff02191690831515021790555061133f565b81600160008373ffffffffffffffffffffffffffffffffffffffff1673ffffffffffffffffffffffffffffffffffffffff168152602001908152602001600020600082825461127d9190611ff1565b9250508190555060016000808373ffffffffffffffffffffffffffffffffffffffff1673ffffffffffffffffffffffffffffffffffffffff16815260200190815260200160002060006101000a81548160ff0219169083151502179055506003819080600181540180825580915050600190039060005260206000200160009091909190916101000a81548173ffffffffffffffffffffffffffffffffffffffff021916908373ffffffffffffffffffffffffffffffffffffffff1602179055505b5050565b60095481565b600115156000803373ffffffffffffffffffffffffffffffffffffffff1673ffffffffffffffffffffffffffffffffffffffff16815260200190815260200160002060009054906101000a900460ff161515146113db576040517f08c379a00000000000000000000000000000000000000000000000000000000081526004016113d290612401565b60405180910390fd5b80600160003373ffffffffffffffffffffffffffffffffffffffff1673ffffffffffffffffffffffffffffffffffffffff16815260200190815260200160002054101561145d576040517f08c379a0000000000000000000000000000000000000000000000000000000008152600401611454906125b1565b60405180910390fd5b8060065410156114a2576040517f08c379a00000000000000000000000000000000000000000000000000000000081526004016114999061261d565b60405180910390fd5b80600160003373ffffffffffffffffffffffffffffffffffffffff1673ffffffffffffffffffffffffffffffffffffffff16815260200190815260200160002060008282546114f19190611ee5565b925050819055506000600160003373ffffffffffffffffffffffffffffffffffffffff1673ffffffffffffffffffffffffffffffffffffffff168152602001908152602001600020540361159b5760008060003373ffffffffffffffffffffffffffffffffffffffff1673ffffffffffffffffffffffffffffffffffffffff16815260200190815260200160002060006101000a81548160ff0219169083151502179055506115fc565b80600660008282546115ad9190611ee5565b925050819055503373ffffffffffffffffffffffffffffffffffffffff166108fc829081150290604051600060405180830381858888f193505050501580156115fa573d6000803e3d6000fd5b505b50565b60016020528060005260406000206000915090505481565b8073ffffffffffffffffffffffffffffffffffffffff166108fc839081150290604051600060405180830381858888f1935050505015801561165d573d6000803e3d6000fd5b505050565b6040518060e00160405280600081526020016060815260200160008152602001600073ffffffffffffffffffffffffffffffffffffffff16815260200160008152602001600081526020016000151581525090565b600080fd5b600080fd5b6000819050919050565b6116d4816116c1565b81146116df57600080fd5b50565b6000813590506116f1816116cb565b92915050565b60006020828403121561170d5761170c6116b7565b5b600061171b848285016116e2565b91505092915050565b61172d816116c1565b82525050565b600081519050919050565b600082825260208201905092915050565b60005b8381101561176d578082015181840152602081019050611752565b60008484015250505050565b6000601f19601f8301169050919050565b600061179582611733565b61179f818561173e565b93506117af81856020860161174f565b6117b881611779565b840191505092915050565b600073ffffffffffffffffffffffffffffffffffffffff82169050919050565b60006117ee826117c3565b9050919050565b6117fe816117e3565b82525050565b60008115159050919050565b61181981611804565b82525050565b600060e082019050611834600083018a611724565b8181036020830152611846818961178a565b90506118556040830188611724565b61186260608301876117f5565b61186f6080830186611724565b61187c60a0830185611724565b61188960c0830184611810565b98975050505050505050565b60006020820190506118aa6000830184611724565b92915050565b60006118bb826117c3565b9050919050565b6118cb816118b0565b82525050565b60006020820190506118e660008301846118c2565b92915050565b600080fd5b600080fd5b600080fd5b60008083601f840112611911576119106118ec565b5b8235905067ffffffffffffffff81111561192e5761192d6118f1565b5b60208301915083600182028301111561194a576119496118f6565b5b9250929050565b61195a816117e3565b811461196557600080fd5b50565b60008135905061197781611951565b92915050565b60008060008060608587031215611997576119966116b7565b5b600085013567ffffffffffffffff8111156119b5576119b46116bc565b5b6119c1878288016118fb565b945094505060206119d4878288016116e2565b92505060406119e587828801611968565b91505092959194509250565b600081519050919050565b600082825260208201905092915050565b6000819050602082019050919050565b611a26816116c1565b82525050565b600082825260208201905092915050565b6000611a4882611733565b611a528185611a2c565b9350611a6281856020860161174f565b611a6b81611779565b840191505092915050565b611a7f816117e3565b82525050565b611a8e81611804565b82525050565b600060e083016000830151611aac6000860182611a1d565b5060208301518482036020860152611ac48282611a3d565b9150506040830151611ad96040860182611a1d565b506060830151611aec6060860182611a76565b506080830151611aff6080860182611a1d565b5060a0830151611b1260a0860182611a1d565b5060c0830151611b2560c0860182611a85565b508091505092915050565b6000611b3c8383611a94565b905092915050565b6000602082019050919050565b6000611b5c826119f1565b611b6681856119fc565b935083602082028501611b7885611a0d565b8060005b85811015611bb45784840389528151611b958582611b30565b9450611ba083611b44565b925060208a01995050600181019050611b7c565b50829750879550505050505092915050565b60006020820190508181036000830152611be08184611b51565b905092915050565b611bf1816118b0565b8114611bfc57600080fd5b50565b600081359050611c0e81611be8565b92915050565b60008060408385031215611c2b57611c2a6116b7565b5b6000611c3985828601611bff565b9250506020611c4a858286016116e2565b9150509250929050565b6000602082019050611c696000830184611810565b92915050565b60008060408385031215611c8657611c856116b7565b5b6000611c94858286016116e2565b9250506020611ca585828601611bff565b9150509250929050565b600060208284031215611cc557611cc46116b7565b5b6000611cd384828501611bff565b91505092915050565b7f4e487b7100000000000000000000000000000000000000000000000000000000600052602260045260246000fd5b60006002820490506001821680611d2357607f821691505b602082108103611d3657611d35611cdc565b5b50919050565b7f596f7520617265206e6f742061204d616e616765720000000000000000000000600082015250565b6000611d7260158361173e565b9150611d7d82611d3c565b602082019050919050565b60006020820190508181036000830152611da181611d65565b9050919050565b7f4e487b7100000000000000000000000000000000000000000000000000000000600052601160045260246000fd5b6000611de2826116c1565b9150611ded836116c1565b9250828202611dfb816116c1565b91508282048414831517611e1257611e11611da8565b5b5092915050565b7f4e487b7100000000000000000000000000000000000000000000000000000000600052601260045260246000fd5b6000611e53826116c1565b9150611e5e836116c1565b925082611e6e57611e6d611e19565b5b828204905092915050565b7f4d616a6f7269747920646f6573206e6f7420737570706f727400000000000000600082015250565b6000611eaf60198361173e565b9150611eba82611e79565b602082019050919050565b60006020820190508181036000830152611ede81611ea2565b9050919050565b6000611ef0826116c1565b9150611efb836116c1565b9250828203905081811115611f1357611f12611da8565b5b92915050565b7f436f6e747269627574696f6e2054696d6520456e646564000000000000000000600082015250565b6000611f4f60178361173e565b9150611f5a82611f19565b602082019050919050565b60006020820190508181036000830152611f7e81611f42565b9050919050565b7f53656e64206d6f7265207468616e203020657468657200000000000000000000600082015250565b6000611fbb60168361173e565b9150611fc682611f85565b602082019050919050565b60006020820190508181036000830152611fea81611fae565b9050919050565b6000611ffc826116c1565b9150612007836116c1565b925082820190508082111561201f5761201e611da8565b5b92915050565b7f4e6f7420656e6f7567682066756e647300000000000000000000000000000000600082015250565b600061205b60108361173e565b915061206682612025565b602082019050919050565b6000602082019050818103600083015261208a8161204e565b9050919050565b7f4e487b7100000000000000000000000000000000000000000000000000000000600052604160045260246000fd5b60008190508160005260206000209050919050565b60006020601f8301049050919050565b600082821b905092915050565b6000600883026121227fffffffffffffffffffffffffffffffffffffffffffffffffffffffffffffffff826120e5565b61212c86836120e5565b95508019841693508086168417925050509392505050565b6000819050919050565b600061216961216461215f846116c1565b612144565b6116c1565b9050919050565b6000819050919050565b6121838361214e565b61219761218f82612170565b8484546120f2565b825550505050565b600090565b6121ac61219f565b6121b781848461217a565b505050565b5b818110156121db576121d06000826121a4565b6001810190506121bd565b5050565b601f821115612220576121f1816120c0565b6121fa846120d5565b81016020851015612209578190505b61221d612215856120d5565b8301826121bc565b50505b505050565b600082821c905092915050565b600061224360001984600802612225565b1980831691505092915050565b600061225c8383612232565b9150826002028217905092915050565b61227582611733565b67ffffffffffffffff81111561228e5761228d612091565b5b6122988254611d0b565b6122a38282856121df565b600060209050601f8311600181146122d657600084156122c4578287015190505b6122ce8582612250565b865550612336565b601f1984166122e4866120c0565b60005b8281101561230c578489015182556001820191506020850194506020810190506122e7565b868310156123295784890151612325601f891682612232565b8355505b6001600288020188555050505b505050505050565b6000612349826116c1565b91507fffffffffffffffffffffffffffffffffffffffffffffffffffffffffffffffff820361237b5761237a611da8565b5b600182019050919050565b7f4e487b7100000000000000000000000000000000000000000000000000000000600052603260045260246000fd5b7f596f7520617265206e6f7420616e20496e766573746f72000000000000000000600082015250565b60006123eb60178361173e565b91506123f6826123b5565b602082019050919050565b6000602082019050818103600083015261241a816123de565b9050919050565b7f596f75206861766520566f746564000000000000000000000000000000000000600082015250565b6000612457600e8361173e565b915061246282612421565b602082019050919050565b600060208201905081810360008301526124868161244a565b9050919050565b7f566f74696e672074696d6520656e646564000000000000000000000000000000600082015250565b60006124c360118361173e565b91506124ce8261248d565b602082019050919050565b600060208201905081810360008301526124f2816124b6565b9050919050565b7f497420697320616c726561647920657865637574656400000000000000000000600082015250565b600061252f60168361173e565b915061253a826124f9565b602082019050919050565b6000602082019050818103600083015261255e81612522565b9050919050565b7f596f7520646f6e74206861766520656e6f756768207368617265730000000000600082015250565b600061259b601b8361173e565b91506125a682612565565b602082019050919050565b600060208201905081810360008301526125ca8161258e565b9050919050565b7f4e6f7420656e6f7567682046756e647300000000000000000000000000000000600082015250565b600061260760108361173e565b9150612612826125d1565b602082019050919050565b60006020820190508181036000830152612636816125fa565b905091905056fea264697066735822122065a503cd8dfdf99727618ca822556adf4aa22e0309fa2bd84110af79ca962a8664736f6c63430008110033",
  "immutableReferences": {},
  "source": "// SPDX-License-Identifier: GPL-3.0\r\n\r\npragma solidity >=0.8.2 <0.9.0;\r\n\r\ncontract Dao{\r\n\r\n    struct Proposal{\r\n        uint Id;\r\n        string description;\r\n        uint amount;\r\n        address payable receipient;\r\n        uint votes;\r\n        uint end;\r\n        bool isExecuted;\r\n    }\r\n\r\n    mapping(address=>bool) private isInvestor;\r\n    mapping(address=>uint)public numOfshares;\r\n    mapping(address=>mapping(uint=>bool)) public isVoted;\r\n    address[] public investorsList;\r\n    mapping(uint=>Proposal) public proposals;\r\n\r\n    uint public totalShares;\r\n    uint public availableFunds;\r\n    uint public contributionTimeEnd;\r\n    uint public nextProposalId;\r\n    uint public voteTime;\r\n    uint public quorum;\r\n    address public manager;\r\n\r\n    constructor(uint _contributionTimeEnd,uint _voteTime,uint _quorum){\r\n        require(_quorum>0 && _quorum<100,\"Not Valid Value\");\r\n        contributionTimeEnd=block.timestamp+_contributionTimeEnd;\r\n        voteTime=_voteTime;\r\n        _quorum=quorum;\r\n        manager=msg.sender;\r\n    }\r\n\r\n    modifier onlyInvestor(){\r\n        require(isInvestor[msg.sender]==true,\"You are not an Investor\");\r\n        _;\r\n    }\r\n\r\n    modifier onlyManager(){\r\n        require(manager==msg.sender,\"You are not a Manager\");\r\n        _;\r\n    }\r\n\r\n    function contribution() public payable {\r\n        require(contributionTimeEnd>=block.timestamp,\"Contribution Time Ended\");\r\n        require(msg.value>0,\"Send more than 0 ether\");\r\n        isInvestor[msg.sender]=true;\r\n        numOfshares[msg.sender]=numOfshares[msg.sender]+msg.value;\r\n        totalShares+=msg.value;\r\n        availableFunds+=msg.value;\r\n        investorsList.push(msg.sender);\r\n    }\r\n\r\n    function reedemShare(uint amount) public onlyInvestor(){\r\n        require(numOfshares[msg.sender]>=amount,\"You dont have enough shares\");\r\n        require(availableFunds>=amount,\"Not enough Funds\");\r\n        numOfshares[msg.sender]-=amount;\r\n        if(numOfshares[msg.sender]==0){\r\n            isInvestor[msg.sender]=false;\r\n        }\r\n        else{\r\n            availableFunds-=amount;\r\n            payable(msg.sender).transfer(amount);\r\n        }\r\n    }\r\n\r\n    function transfer(uint amount,address to) public onlyInvestor(){\r\n        require(numOfshares[msg.sender]>=amount,\"You dont have enough shares\");\r\n        require(availableFunds>=amount,\"Not enough Funds\");\r\n        numOfshares[msg.sender]-=amount;\r\n        if(numOfshares[msg.sender]==0){\r\n            isInvestor[msg.sender]=false;\r\n        }\r\n        else{\r\n            numOfshares[to]+=amount;\r\n            isInvestor[to]=true;\r\n            investorsList.push(to);   \r\n        }\r\n    }\r\n\r\n    function createProposal(string calldata description,uint amount,address payable receipient) public onlyManager() {\r\n        require(availableFunds>=amount,\"Not enough funds\");\r\n        proposals[nextProposalId]=Proposal(nextProposalId,description,amount,\r\n        receipient,0,block.timestamp+voteTime,false);\r\n        nextProposalId++;\r\n    }\r\n\r\n    function voteProposal(uint proposalId) public onlyInvestor(){\r\n        Proposal storage proposal=proposals[proposalId];\r\n        require(isVoted[msg.sender][proposalId]==false,\"You have Voted\");\r\n        require(proposal.end>=block.timestamp,\"Voting time ended\");\r\n        require(proposal.isExecuted==false,\"It is already executed\");\r\n        proposal.votes=numOfshares[msg.sender];  \r\n    }\r\n\r\n    function executeProposal(uint proposalId) public onlyManager(){\r\n        Proposal storage proposal=proposals[proposalId];\r\n        require(((proposal.votes*100)/totalShares)>=quorum,\"Majority does not support\");\r\n        proposal.isExecuted=true;\r\n        availableFunds-=proposal.amount;\r\n        _transfer(proposal.amount,proposal.receipient);\r\n    }\r\n\r\n    function _transfer(uint amount,address payable receipient) private{\r\n        receipient.transfer(amount); \r\n    }\r\n\r\n    function ProposalList() public view returns(Proposal[] memory){\r\n        Proposal[] memory arr= new Proposal[](nextProposalId-1);\r\n        for(uint i=0;i<nextProposalId;i++){\r\n            arr[i]=proposals[i];\r\n        }\r\n        return arr;\r\n    }\r\n}",
  "sourcePath": "D:\\Blockchain\\DApp-DeFi\\dao-dapp\\contracts\\Dao.sol",
  "compiler": {
    "name": "solc",
    "version": "0.8.17+commit.8df45f5f.Emscripten.clang"
  },
  "schemaVersion": "3.4.15",
  "updatedAt": "2023-08-18T10:18:12.775Z",
  "networkType": "ethereum",
  "devdoc": {
    "kind": "dev",
    "methods": {},
    "version": 1
  },
  "userdoc": {
    "kind": "user",
    "methods": {},
    "version": 1
  }
}