{
  "contractName": "SimpleStorage",
  "abi": [
    {
      "inputs": [],
      "name": "x",
      "outputs": [
        {
          "internalType": "uint256",
          "name": "",
          "type": "uint256"
        }
      ],
      "stateMutability": "view",
      "type": "function",
      "constant": true
    },
    {
      "inputs": [
        {
          "internalType": "uint256",
          "name": "num",
          "type": "uint256"
        }
      ],
      "name": "setterlocal",
      "outputs": [],
      "stateMutability": "pure",
      "type": "function",
      "constant": true
    },
    {
      "inputs": [
        {
          "internalType": "uint256",
          "name": "num",
          "type": "uint256"
        }
      ],
      "name": "setterstate",
      "outputs": [],
      "stateMutability": "nonpayable",
      "type": "function"
    },
    {
      "inputs": [],
      "name": "getterstate",
      "outputs": [
        {
          "internalType": "uint256",
          "name": "",
          "type": "uint256"
        }
      ],
      "stateMutability": "view",
      "type": "function",
      "constant": true
    }
  ],
  "bytecode": "0x6080604052600a60005534801561001557600080fd5b506101af806100256000396000f3fe608060405234801561001057600080fd5b506004361061004c5760003560e01c80630c55699c146100515780632e9f5f901461006f5780636cb413851461008b578063724805e2146100a7575b600080fd5b6100596100c5565b6040516100669190610100565b60405180910390f35b6100896004803603810190610084919061014c565b6100cb565b005b6100a560048036038101906100a0919061014c565b6100d5565b005b6100af6100de565b6040516100bc9190610100565b60405180910390f35b60005481565b8060008190555050565b60008190505050565b60008054905090565b6000819050919050565b6100fa816100e7565b82525050565b600060208201905061011560008301846100f1565b92915050565b600080fd5b610129816100e7565b811461013457600080fd5b50565b60008135905061014681610120565b92915050565b6000602082840312156101625761016161011b565b5b600061017084828501610137565b9150509291505056fea2646970667358221220cbf6d2b940b5b73cd5132e496fc65f38f806c971d7db34d354157ff8968864f264736f6c63430008110033",
  "immutableReferences": {},
  "source": "// SPDX-License-Identifier: GPL-3.0\r\n\r\npragma solidity >=0.8.2 <0.9.0;\r\n\r\ncontract SimpleStorage{\r\n    uint public x=10;\r\n    function setterlocal(uint num) public pure{\r\n        uint a;\r\n        a=num;\r\n    }\r\n \r\n    function setterstate(uint num) public{\r\n        x=num;\r\n    }\r\n\r\n    function getterstate() public view returns(uint){\r\n        return x;\r\n    } \r\n}",
  "sourcePath": "D:\\Blockchain\\Truffle\\contracts\\SimpleStorage.sol",
  "compiler": {
    "name": "solc",
    "version": "0.8.17+commit.8df45f5f.Emscripten.clang"
  },
  "schemaVersion": "3.4.15",
  "updatedAt": "2023-08-16T02:38:29.977Z",
  "networkType": "ethereum",
  "devdoc": {
    "kind": "dev",
    "methods": {},
    "version": 1
  },
  "userdoc": {
    "kind": "user",
    "methods": {},
    "version": 1
  }
}